{
  "_format": "hh-sol-artifact-1",
  "contractName": "Lottery",
  "sourceName": "contracts/Lottery.sol",
  "abi": [
    {
      "inputs": [
        {
          "internalType": "address",
          "name": "_keeperAddress",
          "type": "address"
        }
      ],
      "stateMutability": "nonpayable",
      "type": "constructor"
    },
    {
      "anonymous": false,
      "inputs": [
        {
          "indexed": false,
          "internalType": "address",
          "name": "newAddress",
          "type": "address"
        }
      ],
      "name": "KeeperAddressUpdated",
      "type": "event"
    },
    {
      "anonymous": false,
      "inputs": [
        {
          "indexed": true,
          "internalType": "uint256",
          "name": "round",
          "type": "uint256"
        },
        {
          "indexed": false,
          "internalType": "address",
          "name": "playerAddress",
          "type": "address"
        },
        {
          "indexed": true,
          "internalType": "uint256",
          "name": "tickets",
          "type": "uint256"
        }
      ],
      "name": "NewEntry",
      "type": "event"
    },
    {
      "anonymous": false,
      "inputs": [
        {
          "indexed": true,
          "internalType": "uint256",
          "name": "round",
          "type": "uint256"
        },
        {
          "indexed": true,
          "internalType": "address",
          "name": "winner",
          "type": "address"
        },
        {
          "indexed": true,
          "internalType": "uint256",
          "name": "jackpot",
          "type": "uint256"
        }
      ],
      "name": "RoundEnded",
      "type": "event"
    },
    {
      "anonymous": false,
      "inputs": [
        {
          "indexed": false,
          "internalType": "uint256",
          "name": "round",
          "type": "uint256"
        }
      ],
      "name": "RoundStarted",
      "type": "event"
    },
    {
      "inputs": [],
      "name": "currentRound",
      "outputs": [
        {
          "internalType": "uint256",
          "name": "",
          "type": "uint256"
        }
      ],
      "stateMutability": "view",
      "type": "function"
    },
    {
      "inputs": [],
      "name": "deployDate",
      "outputs": [
        {
          "internalType": "uint256",
          "name": "",
          "type": "uint256"
        }
      ],
      "stateMutability": "view",
      "type": "function"
    },
    {
      "inputs": [],
      "name": "draw",
      "outputs": [],
      "stateMutability": "nonpayable",
      "type": "function"
    },
    {
      "inputs": [
        {
          "internalType": "uint256",
          "name": "_n",
          "type": "uint256"
        }
      ],
      "name": "enter",
      "outputs": [],
      "stateMutability": "payable",
      "type": "function"
    },
    {
      "inputs": [
        {
          "internalType": "uint256",
          "name": "_round",
          "type": "uint256"
        }
      ],
      "name": "getEntries",
      "outputs": [
        {
          "internalType": "uint256",
          "name": "",
          "type": "uint256"
        }
      ],
      "stateMutability": "view",
      "type": "function"
    },
    {
      "inputs": [
        {
          "internalType": "uint256",
          "name": "_round",
          "type": "uint256"
        },
        {
          "internalType": "uint256",
          "name": "_id",
          "type": "uint256"
        }
      ],
      "name": "getEntry",
      "outputs": [
        {
          "internalType": "address",
          "name": "",
          "type": "address"
        },
        {
          "internalType": "uint256",
          "name": "",
          "type": "uint256"
        }
      ],
      "stateMutability": "view",
      "type": "function"
    },
    {
      "inputs": [],
      "name": "keeperAddress",
      "outputs": [
        {
          "internalType": "address",
          "name": "",
          "type": "address"
        }
      ],
      "stateMutability": "view",
      "type": "function"
    },
    {
      "inputs": [],
      "name": "ownerAddress",
      "outputs": [
        {
          "internalType": "address",
          "name": "",
          "type": "address"
        }
      ],
      "stateMutability": "view",
      "type": "function"
    },
    {
      "inputs": [
        {
          "internalType": "uint256",
          "name": "",
          "type": "uint256"
        }
      ],
      "name": "rounds",
      "outputs": [
        {
          "internalType": "uint256",
          "name": "ticketsSold",
          "type": "uint256"
        },
        {
          "internalType": "uint256",
          "name": "endDate",
          "type": "uint256"
        },
        {
          "internalType": "address",
          "name": "winnerAddress",
          "type": "address"
        },
        {
          "internalType": "bool",
          "name": "moneySentToTeam",
          "type": "bool"
        },
        {
          "internalType": "bool",
          "name": "moneySentToWinner",
          "type": "bool"
        }
      ],
      "stateMutability": "view",
      "type": "function"
    },
    {
      "inputs": [
        {
          "internalType": "address",
          "name": "_keeper",
          "type": "address"
        }
      ],
      "name": "setKeeper",
      "outputs": [],
      "stateMutability": "nonpayable",
      "type": "function"
    }
  ],
  "bytecode": "0x610120604052662386f26fc10000608052606460a05261012c60c052600760e05260036101008190526001905534801561003857600080fd5b50604051610cda380380610cda833981016040819052610057916100e4565b60008054336001600160a01b031991821617909155600180549091166001600160a01b038316179055426002556003546040519081527f33a701182892fd888ed152ca2ac23771a32e814469b7cd255965471e1af3a6599060200160405180910390a1600354600090815260046020526040902060c0516100d89042610114565b6002909101555061013a565b6000602082840312156100f657600080fd5b81516001600160a01b038116811461010d57600080fd5b9392505050565b6000821982111561013557634e487b7160e01b600052601160045260246000fd5b500190565b60805160a05160c05160e05161010051610b4e61018c600039600061060c01526000818161051a01526106300152600061046e0152600061088f0152600081816104b601526108100152610b4e6000f3fe6080604052600436106100915760003560e01c80638f84aa09116100595780638f84aa09146101a257806398ba676d146101da578063a59f3e0c14610219578063b67a85bd1461022c578063d3549ebd1461024c57600080fd5b80630eecae211461009657806369668fe9146100ad578063748747e6146100d65780638a19c8bc146100f65780638c65c81f1461010c575b600080fd5b3480156100a257600080fd5b506100ab610279565b005b3480156100b957600080fd5b506100c360025481565b6040519081526020015b60405180910390f35b3480156100e257600080fd5b506100ab6100f13660046109f6565b610707565b34801561010257600080fd5b506100c360035481565b34801561011857600080fd5b5061016a610127366004610a26565b6004602052600090815260409020600181015460028201546003909201549091906001600160a01b0381169060ff600160a01b8204811691600160a81b90041685565b6040805195865260208601949094526001600160a01b039092169284019290925290151560608301521515608082015260a0016100cd565b3480156101ae57600080fd5b506000546101c2906001600160a01b031681565b6040516001600160a01b0390911681526020016100cd565b3480156101e657600080fd5b506101fa6101f5366004610a3f565b6107a4565b604080516001600160a01b0390931683526020830191909152016100cd565b6100ab610227366004610a26565b61080b565b34801561023857600080fd5b506001546101c2906001600160a01b031681565b34801561025857600080fd5b506100c3610267366004610a26565b60009081526004602052604090205490565b6001546001600160a01b031633146102c75760405162461bcd60e51b815260206004820152600c60248201526b15539055551213d49254d15160a21b60448201526064015b60405180910390fd5b6003546000908152600460205260409020600281015442101561031d5760405162461bcd60e51b815260206004820152600e60248201526d2927aaa7222fa727aa2fa7ab22a960911b60448201526064016102be565b80546001906000908390829061033557610335610a61565b906000526020600020906002020160010154905060005b8183111561039a578061035e81610a8d565b91505083600001818154811061037657610376610a61565b906000526020600020906002020160010154826103939190610aa8565b915061034c565b60008460000182815481106103b1576103b1610a61565b60009182526020822060029091020154600380880180546001600160a01b0319166001600160a01b03909316928317905560018801549054604051929450909283928592917f131b90b0b17f70b8bf8a6ae2fe2b36c8f64bffde76602ce01ec0a7dc2e3ba57d91a46003805490600061042983610a8d565b91905055507f33a701182892fd888ed152ca2ac23771a32e814469b7cd255965471e1af3a65960035460405161046191815260200190565b60405180910390a16104937f000000000000000000000000000000000000000000000000000000000000000042610aa8565b60035460009081526004602052604081206002019190915560018701546104db907f000000000000000000000000000000000000000000000000000000000000000090610ac0565b6003880154909150600160a01b900460ff166105d45760038701805460ff60a01b1916600160a01b179055600080546001600160a01b0316606461053f7f000000000000000000000000000000000000000000000000000000000000000085610ac0565b6105499190610adf565b604051600081818185875af1925050503d8060008114610585576040519150601f19603f3d011682016040523d82523d6000602084013e61058a565b606091505b50509050806105d25760405162461bcd60e51b81526020600482015260146024820152732320a4a622a22faa27afa9a2a7222fa2aa2422a960611b60448201526064016102be565b505b6003870154600160a81b900460ff166106fe5760038701805460ff60a81b1916600160a81b17905560006001600160a01b03841660647f00000000000000000000000000000000000000000000000000000000000000006106557f000000000000000000000000000000000000000000000000000000000000000083610b01565b61065f9190610b01565b6106699085610ac0565b6106739190610adf565b604051600081818185875af1925050503d80600081146106af576040519150601f19603f3d011682016040523d82523d6000602084013e6106b4565b606091505b50509050806106fc5760405162461bcd60e51b81526020600482015260146024820152732320a4a622a22faa27afa9a2a7222fa2aa2422a960611b60448201526064016102be565b505b50505050505050565b6000546001600160a01b031633146107505760405162461bcd60e51b815260206004820152600c60248201526b15539055551213d49254d15160a21b60448201526064016102be565b600180546001600160a01b0319166001600160a01b0383169081179091556040519081527f6df8bdc906850916d8adcc5efbd0902b8a69475c27fd5badaab83c15f8729f579060200160405180910390a150565b6000828152600460205260408120805482918291859081106107c8576107c8610a61565b60009182526020918290206040805180820190915260029092020180546001600160a01b0316808352600190910154919092018190529093509150509250929050565b6108357f000000000000000000000000000000000000000000000000000000000000000082610ac0565b3410156108775760405162461bcd60e51b815260206004820152601060248201526f4e4f545f454e4f5547485f4d4f4e455960801b60448201526064016102be565b600354600090815260046020526040902060018101547f0000000000000000000000000000000000000000000000000000000000000000906108ba908490610aa8565b11156109085760405162461bcd60e51b815260206004820152601760248201527f4e4f545f454e4f5547485f5449434b4554535f4c45465400000000000000000060448201526064016102be565b806002015442111561094e5760405162461bcd60e51b815260206004820152600f60248201526e1493d5539117d21054d7d153911151608a1b60448201526064016102be565b60408051808201909152338152602080820184815283546001808201865560008681529384209451600290920290940180546001600160a01b0319166001600160a01b0390921691909117815590519083015590820180548492906109b4908490610aa8565b90915550506003546040513381528391907f290d2db4dd3b4df6a4c7543291cb64ab5da0e5bde60d42362f3f9174313ea8e89060200160405180910390a35050565b600060208284031215610a0857600080fd5b81356001600160a01b0381168114610a1f57600080fd5b9392505050565b600060208284031215610a3857600080fd5b5035919050565b60008060408385031215610a5257600080fd5b50508035926020909101359150565b634e487b7160e01b600052603260045260246000fd5b634e487b7160e01b600052601160045260246000fd5b6000600019821415610aa157610aa1610a77565b5060010190565b60008219821115610abb57610abb610a77565b500190565b6000816000190483118215151615610ada57610ada610a77565b500290565b600082610afc57634e487b7160e01b600052601260045260246000fd5b500490565b600082821015610b1357610b13610a77565b50039056fea26469706673582212202ffd8691ee7684ceef60bb7d3e7c8ee1c03e085b6e63131f399676d0e9ff098b64736f6c63430008090033",
  "linkReferences": {},
  "deployedLinkReferences": {}
}