{
  "_format": "hh-sol-artifact-1",
  "contractName": "Lottery",
  "sourceName": "contracts/Lottery.sol",
  "abi": [
    {
      "inputs": [
        {
          "internalType": "address",
          "name": "_keeperAddress",
          "type": "address"
        }
      ],
      "stateMutability": "nonpayable",
      "type": "constructor"
    },
    {
      "anonymous": false,
      "inputs": [
        {
          "indexed": false,
          "internalType": "address",
          "name": "newAddress",
          "type": "address"
        }
      ],
      "name": "KeeperAddressUpdated",
      "type": "event"
    },
    {
      "anonymous": false,
      "inputs": [
        {
          "indexed": true,
          "internalType": "uint256",
          "name": "round",
          "type": "uint256"
        },
        {
          "indexed": false,
          "internalType": "address",
          "name": "playerAddress",
          "type": "address"
        },
        {
          "indexed": true,
          "internalType": "uint256",
          "name": "tickets",
          "type": "uint256"
        }
      ],
      "name": "NewEntry",
      "type": "event"
    },
    {
      "anonymous": false,
      "inputs": [
        {
          "indexed": false,
          "internalType": "address",
          "name": "newOwner",
          "type": "address"
        }
      ],
      "name": "OwnershipTransfered",
      "type": "event"
    },
    {
      "anonymous": false,
      "inputs": [
        {
          "indexed": true,
          "internalType": "uint256",
          "name": "round",
          "type": "uint256"
        },
        {
          "indexed": true,
          "internalType": "address",
          "name": "winner",
          "type": "address"
        },
        {
          "indexed": true,
          "internalType": "uint256",
          "name": "jackpot",
          "type": "uint256"
        }
      ],
      "name": "RoundEnded",
      "type": "event"
    },
    {
      "anonymous": false,
      "inputs": [
        {
          "indexed": false,
          "internalType": "uint256",
          "name": "round",
          "type": "uint256"
        }
      ],
      "name": "RoundStarted",
      "type": "event"
    },
    {
      "inputs": [],
      "name": "currentRound",
      "outputs": [
        {
          "internalType": "uint256",
          "name": "",
          "type": "uint256"
        }
      ],
      "stateMutability": "view",
      "type": "function"
    },
    {
      "inputs": [],
      "name": "deployDate",
      "outputs": [
        {
          "internalType": "uint256",
          "name": "",
          "type": "uint256"
        }
      ],
      "stateMutability": "view",
      "type": "function"
    },
    {
      "inputs": [],
      "name": "draw",
      "outputs": [],
      "stateMutability": "nonpayable",
      "type": "function"
    },
    {
      "inputs": [
        {
          "internalType": "uint256",
          "name": "_n",
          "type": "uint256"
        }
      ],
      "name": "enter",
      "outputs": [],
      "stateMutability": "payable",
      "type": "function"
    },
    {
      "inputs": [
        {
          "internalType": "uint256",
          "name": "_round",
          "type": "uint256"
        }
      ],
      "name": "getEntries",
      "outputs": [
        {
          "internalType": "uint256",
          "name": "",
          "type": "uint256"
        }
      ],
      "stateMutability": "view",
      "type": "function"
    },
    {
      "inputs": [
        {
          "internalType": "uint256",
          "name": "_round",
          "type": "uint256"
        },
        {
          "internalType": "uint256",
          "name": "_id",
          "type": "uint256"
        }
      ],
      "name": "getEntry",
      "outputs": [
        {
          "internalType": "address",
          "name": "",
          "type": "address"
        },
        {
          "internalType": "uint256",
          "name": "",
          "type": "uint256"
        }
      ],
      "stateMutability": "view",
      "type": "function"
    },
    {
      "inputs": [],
      "name": "keeperAddress",
      "outputs": [
        {
          "internalType": "address",
          "name": "",
          "type": "address"
        }
      ],
      "stateMutability": "view",
      "type": "function"
    },
    {
      "inputs": [],
      "name": "ownerAddress",
      "outputs": [
        {
          "internalType": "address",
          "name": "",
          "type": "address"
        }
      ],
      "stateMutability": "view",
      "type": "function"
    },
    {
      "inputs": [
        {
          "internalType": "uint256",
          "name": "",
          "type": "uint256"
        }
      ],
      "name": "rounds",
      "outputs": [
        {
          "internalType": "uint256",
          "name": "ticketsSold",
          "type": "uint256"
        },
        {
          "internalType": "address",
          "name": "winnerAddress",
          "type": "address"
        },
        {
          "internalType": "bool",
          "name": "moneySentToTeam",
          "type": "bool"
        },
        {
          "internalType": "bool",
          "name": "moneySentToWinner",
          "type": "bool"
        }
      ],
      "stateMutability": "view",
      "type": "function"
    },
    {
      "inputs": [
        {
          "internalType": "address",
          "name": "_keeper",
          "type": "address"
        }
      ],
      "name": "setKeeper",
      "outputs": [],
      "stateMutability": "nonpayable",
      "type": "function"
    }
  ],
  "bytecode": "0x610120604052662386f26fc10000608052606460a05261012c60c052600760e05260036101008190526001905534801561003857600080fd5b50604051610c2c380380610c2c833981016040819052610057916100c0565b60008054336001600160a01b031991821617909155600180549091166001600160a01b038316179055426002556003546040519081527f33a701182892fd888ed152ca2ac23771a32e814469b7cd255965471e1af3a6599060200160405180910390a1506100f0565b6000602082840312156100d257600080fd5b81516001600160a01b03811681146100e957600080fd5b9392505050565b60805160a05160c05160e05161010051610aea61014260003960006105ee0152600081816104fc0152610612015260006102c00152600061087101526000818161048f01526107f20152610aea6000f3fe6080604052600436106100915760003560e01c80638f84aa09116100595780638f84aa091461019257806398ba676d146101ca578063a59f3e0c14610209578063b67a85bd1461021c578063d3549ebd1461023c57600080fd5b80630eecae211461009657806369668fe9146100ad578063748747e6146100d65780638a19c8bc146100f65780638c65c81f1461010c575b600080fd5b3480156100a257600080fd5b506100ab610269565b005b3480156100b957600080fd5b506100c360025481565b6040519081526020015b60405180910390f35b3480156100e257600080fd5b506100ab6100f1366004610992565b6106e9565b34801561010257600080fd5b506100c360035481565b34801561011857600080fd5b506101626101273660046109c2565b600460205260009081526040902060018101546002909101546001600160a01b0381169060ff600160a01b8204811691600160a81b90041684565b604080519485526001600160a01b03909316602085015290151591830191909152151560608201526080016100cd565b34801561019e57600080fd5b506000546101b2906001600160a01b031681565b6040516001600160a01b0390911681526020016100cd565b3480156101d657600080fd5b506101ea6101e53660046109db565b610786565b604080516001600160a01b0390931683526020830191909152016100cd565b6100ab6102173660046109c2565b6107ed565b34801561022857600080fd5b506001546101b2906001600160a01b031681565b34801561024857600080fd5b506100c36102573660046109c2565b60009081526004602052604090205490565b6001546001600160a01b031633146102b75760405162461bcd60e51b815260206004820152600c60248201526b15539055551213d49254d15160a21b60448201526064015b60405180910390fd5b6003546102e4907f0000000000000000000000000000000000000000000000000000000000000000610a13565b6002546102f19190610a32565b4210156103315760405162461bcd60e51b815260206004820152600e60248201526d2927aaa7222fa727aa2fa7ab22a960911b60448201526064016102ae565b60035460009081526004602052604081208054600a92908290829061035857610358610a4a565b906000526020600020906002020160010154905060005b818411156103bd578061038181610a60565b91505082600001818154811061039957610399610a4a565b906000526020600020906002020160010154826103b69190610a32565b915061036f565b60008360000182815481106103d4576103d4610a4a565b6000918252602082206002918202015490860180546001600160a01b0319166001600160a01b0390921691821790556001860154600354604051929450909283928592917f131b90b0b17f70b8bf8a6ae2fe2b36c8f64bffde76602ce01ec0a7dc2e3ba57d91a46003805490600061044b83610a60565b91905055507f33a701182892fd888ed152ca2ac23771a32e814469b7cd255965471e1af3a65960035460405161048391815260200190565b60405180910390a160007f000000000000000000000000000000000000000000000000000000000000000086600101546104bd9190610a13565b6002870154909150600160a01b900460ff166105b65760028601805460ff60a01b1916600160a01b179055600080546001600160a01b031660646105217f000000000000000000000000000000000000000000000000000000000000000085610a13565b61052b9190610a7b565b604051600081818185875af1925050503d8060008114610567576040519150601f19603f3d011682016040523d82523d6000602084013e61056c565b606091505b50509050806105b45760405162461bcd60e51b81526020600482015260146024820152732320a4a622a22faa27afa9a2a7222fa2aa2422a960611b60448201526064016102ae565b505b6002860154600160a81b900460ff166106e05760028601805460ff60a81b1916600160a81b17905560006001600160a01b03841660647f00000000000000000000000000000000000000000000000000000000000000006106377f000000000000000000000000000000000000000000000000000000000000000083610a9d565b6106419190610a9d565b61064b9085610a13565b6106559190610a7b565b604051600081818185875af1925050503d8060008114610691576040519150601f19603f3d011682016040523d82523d6000602084013e610696565b606091505b50509050806106de5760405162461bcd60e51b81526020600482015260146024820152732320a4a622a22faa27afa9a2a7222fa2aa2422a960611b60448201526064016102ae565b505b50505050505050565b6000546001600160a01b031633146107325760405162461bcd60e51b815260206004820152600c60248201526b15539055551213d49254d15160a21b60448201526064016102ae565b600180546001600160a01b0319166001600160a01b0383169081179091556040519081527f6df8bdc906850916d8adcc5efbd0902b8a69475c27fd5badaab83c15f8729f579060200160405180910390a150565b6000828152600460205260408120805482918291859081106107aa576107aa610a4a565b60009182526020918290206040805180820190915260029092020180546001600160a01b0316808352600190910154919092018190529093509150509250929050565b6108177f000000000000000000000000000000000000000000000000000000000000000082610a13565b3410156108595760405162461bcd60e51b815260206004820152601060248201526f4e4f545f454e4f5547485f4d4f4e455960801b60448201526064016102ae565b600354600090815260046020526040902060018101547f00000000000000000000000000000000000000000000000000000000000000009061089c908490610a32565b11156108ea5760405162461bcd60e51b815260206004820152601760248201527f4e4f545f454e4f5547485f5449434b4554535f4c45465400000000000000000060448201526064016102ae565b60408051808201909152338152602080820184815283546001808201865560008681529384209451600290920290940180546001600160a01b0319166001600160a01b039092169190911781559051908301559082018054849290610950908490610a32565b90915550506003546040513381528391907f290d2db4dd3b4df6a4c7543291cb64ab5da0e5bde60d42362f3f9174313ea8e89060200160405180910390a35050565b6000602082840312156109a457600080fd5b81356001600160a01b03811681146109bb57600080fd5b9392505050565b6000602082840312156109d457600080fd5b5035919050565b600080604083850312156109ee57600080fd5b50508035926020909101359150565b634e487b7160e01b600052601160045260246000fd5b6000816000190483118215151615610a2d57610a2d6109fd565b500290565b60008219821115610a4557610a456109fd565b500190565b634e487b7160e01b600052603260045260246000fd5b6000600019821415610a7457610a746109fd565b5060010190565b600082610a9857634e487b7160e01b600052601260045260246000fd5b500490565b600082821015610aaf57610aaf6109fd565b50039056fea264697066735822122068f991e774ed97b5230f18d0ba7e62029b79fb4ad59b9270e370001e8a5bce0464736f6c63430008090033",
  "linkReferences": {},
  "deployedLinkReferences": {}
}